C51 COMPILER V9.60.0.0   INITDEVICE                                                        03/11/2024 16:02:04 PAGE 1   


C51 COMPILER V9.60.0.0, COMPILATION OF MODULE INITDEVICE
OBJECT MODULE PLACED IN .\src\InitDevice.OBJ
COMPILER INVOKED BY: C:\SiliconLabs\SimplicityStudio\v5\developer\toolchains\keil_8051\9.60\BIN\C51.exe C:\Users\vgnsi\S
                    -implicityStudio\Projects\touch_gpio\src\InitDevice.c OMF2 SMALL DEBUG OBJECTEXTEND ROM(LARGE) WARNINGLEVEL(2) FLOATFUZZY
                    -(3) OPTIMIZE(8,SPEED) DEFINE(DEBUG=1) INTVECTOR(0X0000) INTPROMOTE INCDIR(C:\Users\vgnsi\SimplicityStudio\Projects\touch
                    -_gpio\inc;C:\Users\vgnsi\SimplicityStudio\Projects\touch_gpio\inc\config;C:/SiliconLabs/SimplicityStudio/v5/developer/sd
                    -ks/8051/v4.3.1//Device/EFM8SB1/peripheral_driver/inc;C:/SiliconLabs/SimplicityStudio/v5/developer/sdks/8051/v4.3.1//Devi
                    -ce/shared/si8051Base;C:/SiliconLabs/SimplicityStudio/v5/developer/sdks/8051/v4.3.1//Device/EFM8SB1/inc;C:/SiliconLabs/Si
                    -mplicityStudio/v5/developer/sdks/8051/v4.3.1//Device/EFM8SB1/efm8_capsense/serial_interface;C:/SiliconLabs/SimplicityStu
                    -dio/v5/developer/sdks/8051/v4.3.1//Lib/efm8_capsense;C:/SiliconLabs/SimplicityStudio/v5/developer/sdks/8051/v4.3.1//Devi
                    -ce/EFM8SB1/efm8_capsense/device_layer) PRINT(.\src\InitDevice.lst) COND PAGEWIDTH(120) PAGELENGTH(65) OBJECT(.\src\InitD
                    -evice.OBJ)

line level    source

   1          //=========================================================
   2          // src/InitDevice.c: generated by Hardware Configurator
   3          //
   4          // This file will be regenerated when saving a document.
   5          // leave the sections inside the "$[...]" comment tags alone
   6          // or they will be overwritten!
   7          //=========================================================
   8          
   9          // USER INCLUDES
  10          //#include <stdint.h>
  11          #include <SI_EFM8SB1_Register_Enums.h>
  12          #include "InitDevice.h"
  13          #include "cslib.h"
  14          
  15          // USER PROTOTYPES
  16          // USER FUNCTIONS
  17          
  18          // $[Library Includes]
  19          // [Library Includes]$
  20          
  21          extern void
  22          CSLIB_0_enter_DefaultMode_from_RESET (void)
  23          {
  24   1        // $[CSLIB Init]
  25   1      
  26   1        // -----------------------------------------------------------------------------
  27   1        // Configures all peripherals controlled by capsense, including the sensing block
  28   1        // and port pins
  29   1        // -----------------------------------------------------------------------------
  30   1        CSLIB_initHardware ();
  31   1      
  32   1        // -----------------------------------------------------------------------------
  33   1        // Initializes capsense variables and performs some scans to initialize the
  34   1        // baselines
  35   1        // -----------------------------------------------------------------------------
  36   1        CSLIB_initLibrary ();
  37   1      
  38   1        // SCON0_TI = 1;     // Indicate UART ready for transmission
  39   1        // [CSLIB Init]$
  40   1      
  41   1      }
  42          
  43          extern void
  44          PCACH_2_enter_DefaultMode_from_RESET (void)
  45          {
  46   1        // $[PCA0 Settings Save]
  47   1        uint8_t PCA0CN0_CR_save;
C51 COMPILER V9.60.0.0   INITDEVICE                                                        03/11/2024 16:02:04 PAGE 2   

  48   1        uint8_t PCA0PWM_ARSEL_save;
  49   1        PCA0CN0_CR_save = PCA0CN0 & PCA0CN0_CR__BMASK;
  50   1        PCA0PWM_ARSEL_save = PCA0PWM & PCA0PWM_ARSEL__BMASK;
  51   1      
  52   1        // Turn PCA0 off while updating PCACH2
  53   1        PCA0CN0 &= ~PCA0CN0_CR__BMASK;
  54   1        // Select Capture/Compare register)
  55   1        PCA0PWM &= ~PCA0PWM_ARSEL__BMASK;
  56   1        // [PCA0 Settings Save]$
  57   1      
  58   1        // $[PCA0CPM2 - PCA Channel 2 Capture/Compare Mode]
  59   1        /*
  60   1         // CAPN (Channel 2 Capture Negative Function Enable) = DISABLED (Disable
  61   1         //     negative edge capture.)
  62   1         // ECCF (Channel 2 Capture/Compare Flag Interrupt Enable) = DISABLED
  63   1         //     (Disable CCF2 interrupts.)
  64   1         // MAT (Channel 2 Match Function Enable) = ENABLED (Enable match
  65   1         //     function.)
  66   1         // PWM16 (Channel 2 16-bit Pulse Width Modulation Enable) = 8_BIT (8 to
  67   1         //     11-bit PWM selected.)
  68   1         // CAPP (Channel 2 Capture Positive Function Enable) = DISABLED (Disable
  69   1         //     positive edge capture.)
  70   1         // ECOM (Channel 2 Comparator Function Enable) = DISABLED (Disable
  71   1         //     comparator function.)
  72   1         // PWM (Channel 2 Pulse Width Modulation Mode Enable) = DISABLED (Disable
  73   1         //     PWM function.)
  74   1         // TOG (Channel 2 Toggle Function Enable) = DISABLED (Disable toggle
  75   1         //     function.)
  76   1         */
  77   1        PCA0CPM2 = PCA0CPM2_CAPN__DISABLED | PCA0CPM2_ECCF__DISABLED
  78   1            | PCA0CPM2_MAT__ENABLED | PCA0CPM2_PWM16__8_BIT | PCA0CPM2_CAPP__DISABLED
  79   1            | PCA0CPM2_ECOM__DISABLED | PCA0CPM2_PWM__DISABLED
  80   1            | PCA0CPM2_TOG__DISABLED;
  81   1        // [PCA0CPM2 - PCA Channel 2 Capture/Compare Mode]$
  82   1      
  83   1        // $[PCA0CPL2 - PCA Channel 2 Capture Module Low Byte]
  84   1        // [PCA0CPL2 - PCA Channel 2 Capture Module Low Byte]$
  85   1      
  86   1        // $[PCA0CPH2 - PCA Channel 2 Capture Module High Byte]
  87   1        // [PCA0CPH2 - PCA Channel 2 Capture Module High Byte]$
  88   1      
  89   1        // $[Auto-reload]
  90   1        // [Auto-reload]$
  91   1      
  92   1        // $[PCA0 Settings Restore]
  93   1        PCA0CN0 |= PCA0CN0_CR_save;
  94   1        PCA0PWM |= PCA0PWM_ARSEL_save;
  95   1        // [PCA0 Settings Restore]$
  96   1      
  97   1      }
  98          
  99          extern void
 100          RTC_0_enter_DefaultMode_from_RESET (void)
 101          {
 102   1        // $[RTC Initialization]
 103   1        // [RTC Initialization]$
 104   1      
 105   1        // $[RTC0XCN0 - RTC Oscillator Control: Initial start-up setting]
 106   1        // [RTC0XCN0 - RTC Oscillator Control: Initial start-up setting]$
 107   1      
 108   1        // $[RTC0XCN - RTC Oscillator Control]
 109   1        // [RTC0XCN - RTC Oscillator Control]$
 110   1      
C51 COMPILER V9.60.0.0   INITDEVICE                                                        03/11/2024 16:02:04 PAGE 3   

 111   1        // $[RTC0XCF - RTC Oscillator Configuration]
 112   1        /*
 113   1         // AUTOSTP (Automatic Load Capacitance Stepping Enable) = DISABLED
 114   1         //     (Disable load capacitance stepping.)
 115   1         // LOADCAP (Load Capacitance Programmed Value) = 0x07
 116   1         */
 117   1        RTC0ADR = RTC0XCF;
 118   1        RTC0DAT = RTC0XCF_AUTOSTP__DISABLED | (0x07 << RTC0XCF_LOADCAP__SHIFT);
 119   1        while ((RTC0ADR & RTC0ADR_BUSY__BMASK) == RTC0ADR_BUSY__SET)
 120   1          ;    //Poll Busy Bit
 121   1        // [RTC0XCF - RTC Oscillator Configuration]$
 122   1      
 123   1        // $[CAPTURE0 - RTC Timer Capture 0]
 124   1        // [CAPTURE0 - RTC Timer Capture 0]$
 125   1      
 126   1        // $[CAPTURE1 - RTC Timer Capture 1]
 127   1        // [CAPTURE1 - RTC Timer Capture 1]$
 128   1      
 129   1        // $[CAPTURE2 - RTC Timer Capture 2]
 130   1        // [CAPTURE2 - RTC Timer Capture 2]$
 131   1      
 132   1        // $[CAPTURE3 - RTC Timer Capture 3]
 133   1        // [CAPTURE3 - RTC Timer Capture 3]$
 134   1      
 135   1        // $[ALARM0 - RTC Alarm Programmed Value 0]
 136   1        /*
 137   1         // ALARM0 (RTC Alarm Programmed Value 0) = 0x14
 138   1         */
 139   1        RTC0ADR = ALARM0;
 140   1        RTC0DAT = (0x14 << ALARM0_ALARM0__SHIFT);
 141   1        while ((RTC0ADR & RTC0ADR_BUSY__BMASK) == RTC0ADR_BUSY__SET)
 142   1          ;    //Poll Busy Bit
 143   1        // [ALARM0 - RTC Alarm Programmed Value 0]$
 144   1      
 145   1        // $[ALARM1 - RTC Alarm Programmed Value 1]
 146   1        // [ALARM1 - RTC Alarm Programmed Value 1]$
 147   1      
 148   1        // $[ALARM2 - RTC Alarm Programmed Value 2]
 149   1        // [ALARM2 - RTC Alarm Programmed Value 2]$
 150   1      
 151   1        // $[ALARM3 - RTC Alarm Programmed Value 3]
 152   1        // [ALARM3 - RTC Alarm Programmed Value 3]$
 153   1      
 154   1        // $[RTC0CN - RTC Control]
 155   1        /*
 156   1         // RTC0EN (RTC Enable) = ENABLED (Enable RTC oscillator.)
 157   1         // RTC0TR (RTC Timer Run Control) = STOP (RTC timer is stopped.)
 158   1         // MCLKEN (Missing RTC Detector Enable) = DISABLED (Disable missing RTC
 159   1         //     detector.)
 160   1         // RTC0AEN (RTC Alarm Enable) = DISABLED (Disable RTC alarm.)
 161   1         // ALRM (RTC Alarm Event Flag and Auto Reset Enable) = NOT_SET (Alarm
 162   1         //     event flag is not set or disable the auto reset function.)
 163   1         // RTC0CAP (RTC Timer Capture) = NOT_SET (Do not start a capture
 164   1         //     operation.)
 165   1         // RTC0SET (RTC Timer Set) = NOT_SET (Do not start a set operation.)
 166   1         */
 167   1        RTC0ADR = RTC0CN0;
 168   1        RTC0DAT = RTC0CN0_RTC0EN__ENABLED | RTC0CN0_RTC0TR__STOP
 169   1            | RTC0CN0_MCLKEN__DISABLED | RTC0CN0_RTC0AEN__DISABLED
 170   1            | RTC0CN0_ALRM__NOT_SET | RTC0CN0_RTC0CAP__NOT_SET
 171   1            | RTC0CN0_RTC0SET__NOT_SET;
 172   1        while ((RTC0ADR & RTC0ADR_BUSY__BMASK) == RTC0ADR_BUSY__SET)
 173   1          ;    //Poll Busy Bit
C51 COMPILER V9.60.0.0   INITDEVICE                                                        03/11/2024 16:02:04 PAGE 4   

 174   1      
 175   1        // [RTC0CN - RTC Control]$
 176   1      
 177   1        // $[External Oscillator Setup]
 178   1        // [External Oscillator Setup]$
 179   1      
 180   1      }
 181          
 182          //==============================================================================
 183          // enter_DefaultMode_from_RESET
 184          //==============================================================================
 185          extern void
 186          enter_DefaultMode_from_RESET (void)
 187          {
 188   1        // $[Config Calls]
 189   1        // Save the SFRPAGE
 190   1        uint8_t SFRPAGE_save = SFRPAGE;
 191   1        PCA_0_enter_DefaultMode_from_RESET ();
 192   1      //  PCACH_2_enter_DefaultMode_from_RESET ();
 193   1        VREG_0_enter_DefaultMode_from_RESET ();
 194   1      
 195   1        HFOSC_0_enter_DefaultMode_from_RESET ();
 196   1      //  RTC_0_enter_DefaultMode_from_RESET ();
 197   1        CLOCK_0_enter_DefaultMode_from_RESET ();
 198   1      
 199   1        // Restore the SFRPAGE
 200   1        SFRPAGE = SFRPAGE_save;
 201   1        // [Config Calls]$
 202   1      
 203   1      }
 204          
 205          extern void
 206          enter_Mode2_from_DefaultMode (void)
 207          {
 208   1        // $[Config Calls]
 209   1        // Save the SFRPAGE
 210   1        uint8_t SFRPAGE_save = SFRPAGE;
 211   1        PORTS_0_enter_DefaultMode_from_RESET ();
 212   1        PORTS_1_enter_DefaultMode_from_RESET ();
 213   1        PBCFG_0_enter_DefaultMode_from_RESET ();
 214   1        TIMER01_0_enter_DefaultMode_from_RESET ();
 215   1        TIMER16_3_enter_DefaultMode_from_RESET ();
 216   1        TIMER_SETUP_0_enter_DefaultMode_from_RESET ();
 217   1      //  SMBUS_0_enter_DefaultMode_from_RESET ();
 218   1        INTERRUPT_0_enter_DefaultMode_from_RESET ();
 219   1      //  CSLIB_0_enter_DefaultMode_from_RESET ();
 220   1        // Restore the SFRPAGE
 221   1        SFRPAGE = SFRPAGE_save;
 222   1        // [Config Calls]$
 223   1      
 224   1      }
 225          
 226          //================================================================================
 227          // PCA_0_enter_DefaultMode_from_RESET
 228          //================================================================================
 229          extern void
 230          PCA_0_enter_DefaultMode_from_RESET (void)
 231          {
 232   1        // $[PCA0MD - PCA Mode]
 233   1        /*
 234   1         // WDTE (Watchdog Timer Enable) = DISABLED (Disable Watchdog Timer.)
 235   1         // CPS (PCA Counter/Timer Pulse Select) = SYSCLK_DIV_12 (System clock
 236   1         //     divided by 12.)
C51 COMPILER V9.60.0.0   INITDEVICE                                                        03/11/2024 16:02:04 PAGE 5   

 237   1         // CIDL (PCA Counter/Timer Idle Control) = NORMAL (PCA continues to
 238   1         //     function normally while the system controller is in Idle Mode.)
 239   1         // ECF (PCA Counter/Timer Overflow Interrupt Enable) = OVF_INT_DISABLED
 240   1         //     (Disable the CF interrupt.)
 241   1         // WDTE (Watchdog Timer Enable) = DISABLED (Disable Watchdog Timer.)
 242   1         // WDLCK (Watchdog Timer Lock) = UNLOCKED (Watchdog Timer Enable
 243   1         //     unlocked.)
 244   1         */
 245   1        SFRPAGE = 0x00;
 246   1        PCA0MD &= ~PCA0MD_WDTE__BMASK;
 247   1        PCA0MD = PCA0MD_CPS__SYSCLK_DIV_12 | PCA0MD_CIDL__NORMAL
 248   1            | PCA0MD_ECF__OVF_INT_DISABLED | PCA0MD_WDTE__DISABLED
 249   1            | PCA0MD_WDLCK__UNLOCKED;
 250   1      //  PCA0MD = PCA0MD_CPS__SYSCLK_DIV_12 | PCA0MD_CIDL__NORMAL | PCA0MD_ECF__OVF_INT_DISABLED
 251   1      //        | PCA0MD_WDTE__DISABLED | PCA0MD_WDLCK__UNLOCKED;
 252   1        // [PCA0MD - PCA Mode]$
 253   1      
 254   1        // $[PCA0H - PCA Counter/Timer High Byte]
 255   1        // [PCA0H - PCA Counter/Timer High Byte]$
 256   1      
 257   1        // $[PCA0L - PCA Counter/Timer Low Byte]
 258   1        // [PCA0L - PCA Counter/Timer Low Byte]$
 259   1      
 260   1        // $[PCA0PWM - PCA PWM Configuration]
 261   1        // [PCA0PWM - PCA PWM Configuration]$
 262   1      
 263   1        // $[PCA0CN0 - PCA Control 0]
 264   1        // [PCA0CN0 - PCA Control 0]$
 265   1      
 266   1      }
 267          
 268          //================================================================================
 269          // VREG_0_enter_DefaultMode_from_RESET
 270          //================================================================================
 271          extern void
 272          VREG_0_enter_DefaultMode_from_RESET (void)
 273          {
 274   1        // $[REG0CN - Voltage Regulator Control]
 275   1        /*
 276   1         // OSCBIAS (High Frequency Oscillator Bias) = ENABLED (Enable the
 277   1         //     precision High Frequency Oscillator bias.)
 278   1         */
 279   1        REG0CN = REG0CN_OSCBIAS__ENABLED;
 280   1        // [REG0CN - Voltage Regulator Control]$
 281   1      
 282   1      }
 283          extern void
 284          PORTS_0_enter_DefaultMode_from_RESET (void)
 285          {
 286   1        // $[P0 - Port 0 Pin Latch]
 287   1        // [P0 - Port 0 Pin Latch]$
 288   1      
 289   1        // $[P0MDOUT - Port 0 Output Mode]
 290   1        // [P0MDOUT - Port 0 Output Mode]$
 291   1      
 292   1        // $[P0MDIN - Port 0 Input Mode]
 293   1        // [P0MDIN - Port 0 Input Mode]$
 294   1        P0MDIN = P0MDIN_B0__ANALOG | P0MDIN_B1__ANALOG | P0MDIN_B2__ANALOG
 295   1            | P0MDIN_B3__ANALOG | P0MDIN_B4__DIGITAL | P0MDIN_B5__DIGITAL
 296   1            | P0MDIN_B6__ANALOG | P0MDIN_B7__ANALOG;
 297   1        P0MDOUT =
 298   1        P0MDOUT_B0__OPEN_DRAIN | P0MDOUT_B1__OPEN_DRAIN | P0MDOUT_B2__OPEN_DRAIN
 299   1            | P0MDOUT_B3__OPEN_DRAIN | P0MDOUT_B4__OPEN_DRAIN | P0MDOUT_B5__OPEN_DRAIN
C51 COMPILER V9.60.0.0   INITDEVICE                                                        03/11/2024 16:02:04 PAGE 6   

 300   1            | P0MDOUT_B6__OPEN_DRAIN| P0MDOUT_B7__OPEN_DRAIN;
 301   1      
 302   1        // $[P0SKIP - Port 0 Skip]
 303   1        /*
 304   1         // B0 (Port 0 Bit 0 Skip) = SKIPPED (P0.0 pin is skipped by the
 305   1         //     crossbar.)
 306   1         // B1 (Port 0 Bit 1 Skip) = SKIPPED (P0.1 pin is skipped by the
 307   1         //     crossbar.)
 308   1         // B2 (Port 0 Bit 2 Skip) = SKIPPED (P0.2 pin is skipped by the
 309   1         //     crossbar.)
 310   1         // B3 (Port 0 Bit 3 Skip) = SKIPPED (P0.3 pin is skipped by the
 311   1         //     crossbar.)
 312   1         // B4 (Port 0 Bit 4 Skip) = SKIPPED (P0.4 pin is skipped by the
 313   1         //     crossbar.)
 314   1         // B5 (Port 0 Bit 5 Skip) = SKIPPED (P0.5 pin is skipped by the
 315   1         //     crossbar.)
 316   1         // B6 (Port 0 Bit 6 Skip) = SKIPPED (P0.6 pin is skipped by the
 317   1         //     crossbar.)
 318   1         // B7 (Port 0 Bit 7 Skip) = SKIPPED (P0.7 pin is skipped by the
 319   1         //     crossbar.)
 320   1         */
 321   1        P0SKIP = P0SKIP_B0__SKIPPED | P0SKIP_B1__SKIPPED | P0SKIP_B2__SKIPPED
 322   1            | P0SKIP_B3__SKIPPED | P0SKIP_B4__SKIPPED | P0SKIP_B5__SKIPPED
 323   1            | P0SKIP_B6__SKIPPED | P0SKIP_B7__SKIPPED;
 324   1        // [P0SKIP - Port 0 Skip]$
 325   1      
 326   1        // $[P0MASK - Port 0 Mask]
 327   1        // [P0MASK - Port 0 Mask]$
 328   1      
 329   1        // $[P0MAT - Port 0 Match]
 330   1        // [P0MAT - Port 0 Match]$
 331   1      
 332   1        // $[P0DRV - Port 0 Drive Strength]
 333   1        // [P0DRV - Port 0 Drive Strength]$
 334   1      
 335   1      }
 336          //================================================================================
 337          // PORTS_1_enter_DefaultMode_from_RESET
 338          //================================================================================
 339          extern void
 340          PORTS_1_enter_DefaultMode_from_RESET (void)
 341          {
 342   1        // $[P1 - Port 1 Pin Latch]
 343   1        // [P1 - Port 1 Pin Latch]$
 344   1      
 345   1        // $[P1MDOUT - Port 1 Output Mode]
 346   1        /*
 347   1         // B0 (Port 1 Bit 0 Output Mode) = OPEN_DRAIN (P1.0 output is open-
 348   1         //     drain.)
 349   1         // B1 (Port 1 Bit 1 Output Mode) = PUSH_PULL (P1.1 output is push-pull.)
 350   1         // B2 (Port 1 Bit 2 Output Mode) = OPEN_DRAIN (P1.2 output is open-
 351   1         //     drain.)
 352   1         // B3 (Port 1 Bit 3 Output Mode) = OPEN_DRAIN (P1.3 output is open-
 353   1         //     drain.)
 354   1         // B4 (Port 1 Bit 4 Output Mode) = OPEN_DRAIN (P1.4 output is open-
 355   1         //     drain.)
 356   1         // B5 (Port 1 Bit 5 Output Mode) = OPEN_DRAIN (P1.5 output is open-
 357   1         //     drain.)
 358   1         // B6 (Port 1 Bit 6 Output Mode) = OPEN_DRAIN (P1.6 output is open-
 359   1         //     drain.)
 360   1         // B7 (Port 1 Bit 7 Output Mode) = OPEN_DRAIN (P1.7 output is open-
 361   1         //     drain.)
 362   1         */
C51 COMPILER V9.60.0.0   INITDEVICE                                                        03/11/2024 16:02:04 PAGE 7   

 363   1        P1MDOUT =
 364   1        P1MDOUT_B0__PUSH_PULL | P1MDOUT_B1__PUSH_PULL | P1MDOUT_B2__PUSH_PULL
 365   1            | P1MDOUT_B3__PUSH_PULL | P1MDOUT_B4__OPEN_DRAIN | P1MDOUT_B5__OPEN_DRAIN
 366   1            | P1MDOUT_B6__PUSH_PULL | P1MDOUT_B7__PUSH_PULL;
 367   1        P1MDIN = P1MDIN_B0__DIGITAL | P1MDIN_B1__DIGITAL | P1MDIN_B2__DIGITAL
 368   1            | P1MDIN_B3__DIGITAL | P1MDIN_B4__ANALOG | P1MDIN_B5__ANALOG
 369   1            | P1MDIN_B6__DIGITAL | P1MDIN_B7__DIGITAL;
 370   1        // [P1MDOUT - Port 1 Output Mode]$
 371   1      
 372   1        // $[P1MDIN - Port 1 Input Mode]
 373   1        // [P1MDIN - Port 1 Input Mode]$
 374   1      
 375   1        // $[P1SKIP - Port 1 Skip]
 376   1        /*
 377   1         // B0 (Port 1 Bit 0 Skip) = SKIPPED (P1.0 pin is skipped by the
 378   1         //     crossbar.)
 379   1         // B1 (Port 1 Bit 1 Skip) = SKIPPED (P1.1 pin is skipped by the
 380   1         //     crossbar.)
 381   1         // B2 (Port 1 Bit 2 Skip) = NOT_SKIPPED (P1.2 pin is not skipped by the
 382   1         //     crossbar.)
 383   1         // B3 (Port 1 Bit 3 Skip) = NOT_SKIPPED (P1.3 pin is not skipped by the
 384   1         //     crossbar.)
 385   1         // B4 (Port 1 Bit 4 Skip) = NOT_SKIPPED (P1.4 pin is not skipped by the
 386   1         //     crossbar.)
 387   1         // B5 (Port 1 Bit 5 Skip) = NOT_SKIPPED (P1.5 pin is not skipped by the
 388   1         //     crossbar.)
 389   1         // B6 (Port 1 Bit 6 Skip) = NOT_SKIPPED (P1.6 pin is not skipped by the
 390   1         //     crossbar.)
 391   1         // B7 (Port 1 Bit 7 Skip) = NOT_SKIPPED (P1.7 pin is not skipped by the
 392   1         //     crossbar.)
 393   1         */
 394   1        P1SKIP = P1SKIP_B0__SKIPPED | P1SKIP_B1__SKIPPED | P1SKIP_B2__SKIPPED
 395   1            | P1SKIP_B3__SKIPPED | P1SKIP_B4__SKIPPED | P1SKIP_B5__SKIPPED
 396   1            | P1SKIP_B6__SKIPPED | P1SKIP_B7__SKIPPED;
 397   1        // [P1SKIP - Port 1 Skip]$
 398   1      
 399   1        // $[P1MASK - Port 1 Mask]
 400   1        // [P1MASK - Port 1 Mask]$
 401   1      
 402   1        // $[P1MAT - Port 1 Match]
 403   1        // [P1MAT - Port 1 Match]$
 404   1      
 405   1        // $[P1DRV - Port 1 Drive Strength]
 406   1        // [P1DRV - Port 1 Drive Strength]$
 407   1      
 408   1      }
 409          
 410          //================================================================================
 411          // PBCFG_0_enter_DefaultMode_from_RESET
 412          //================================================================================
 413          extern void
 414          PBCFG_0_enter_DefaultMode_from_RESET (void)
 415          {
 416   1        // $[XBR2 - Port I/O Crossbar 2]
 417   1        /*
 418   1         // WEAKPUD (Port I/O Weak Pullup Disable) = PULL_UPS_ENABLED (Weak
 419   1         //     Pullups enabled (except for Ports whose I/O are configured for analog
 420   1         //     mode).)
 421   1         // XBARE (Crossbar Enable) = ENABLED (Crossbar enabled.)
 422   1         */
 423   1        XBR2 = XBR2_WEAKPUD__PULL_UPS_ENABLED | XBR2_XBARE__ENABLED;
 424   1        // [XBR2 - Port I/O Crossbar 2]$
 425   1      
C51 COMPILER V9.60.0.0   INITDEVICE                                                        03/11/2024 16:02:04 PAGE 8   

 426   1        // $[XBR0 - Port I/O Crossbar 0]
 427   1        /*
 428   1         // URT0E (UART I/O Output Enable) = DISABLED (UART I/O unavailable at
 429   1         //     Port pin.)
 430   1         // SPI0E (SPI I/O Enable) = DISABLED (SPI I/O unavailable at Port pins.)
 431   1         // SMB0E (SMBus0 I/O Enable) = ENABLED (SMBus0 I/O routed to Port pins.)
 432   1         // CP0E (Comparator0 Output Enable) = DISABLED (CP0 unavailable at Port
 433   1         //     pin.)
 434   1         // CP0AE (Comparator0 Asynchronous Output Enable) = DISABLED
 435   1         //     (Asynchronous CP0 unavailable at Port pin.)
 436   1         // SYSCKE (SYSCLK Output Enable) = DISABLED (SYSCLK unavailable at Port
 437   1         //     pin.)
 438   1         */
 439   1        XBR0 = XBR0_URT0E__DISABLED | XBR0_SPI0E__DISABLED | XBR0_SMB0E__DISABLED
 440   1            | XBR0_CP0E__DISABLED | XBR0_CP0AE__DISABLED | XBR0_SYSCKE__DISABLED;
 441   1        // [XBR0 - Port I/O Crossbar 0]$
 442   1      
 443   1        // $[XBR1 - Port I/O Crossbar 1]
 444   1        // [XBR1 - Port I/O Crossbar 1]$
 445   1      
 446   1      }
 447          
 448          //================================================================================
 449          // HFOSC_0_enter_DefaultMode_from_RESET
 450          //================================================================================
 451          extern void
 452          HFOSC_0_enter_DefaultMode_from_RESET (void)
 453          {
 454   1        // $[HFO#CAL - High Frequency Oscillator Calibration]
 455   1        // [HFO#CAL - High Frequency Oscillator Calibration]$
 456   1      
 457   1        // $[HFO#CN - High Frequency Oscillator Control]
 458   1        /*
 459   1         // IOSCEN (High Frequency Oscillator Enable) = ENABLED (High Frequency
 460   1         //     Oscillator enabled.)
 461   1         */
 462   1        HFO0CN |= HFO0CN_IOSCEN__ENABLED;
 463   1        // [HFO#CN - High Frequency Oscillator Control]$
 464   1      
 465   1        // $[Oscillator Ready]
 466   1        while ((HFO0CN & HFO0CN_IFRDY__BMASK) == HFO0CN_IFRDY__NOT_SET)
 467   1          ;
 468   1        // [Oscillator Ready]$
 469   1      
 470   1      }
 471          
 472          //================================================================================
 473          // CLOCK_0_enter_DefaultMode_from_RESET
 474          //================================================================================
 475          extern void
 476          CLOCK_0_enter_DefaultMode_from_RESET (void)
 477          {
 478   1        // $[CLKSEL - Clock Select]
 479   1        /*
 480   1         // CLKDIV (Clock Source Divider) = SYSCLK_DIV_1 (SYSCLK is equal to
 481   1         //     selected clock source divided by 1.)
 482   1         // CLKSL (Clock Source Select) = HFOSC (Clock derived from the internal
 483   1         //     precision High-Frequency Oscillator.)
 484   1         */
 485   1        CLKSEL = CLKSEL_CLKDIV__SYSCLK_DIV_1 | CLKSEL_CLKSL__HFOSC;
 486   1        // Wait for the clock to be ready
 487   1        while ((CLKSEL & CLKSEL_CLKRDY__BMASK) != CLKSEL_CLKRDY__SET)
 488   1          ;
C51 COMPILER V9.60.0.0   INITDEVICE                                                        03/11/2024 16:02:04 PAGE 9   

 489   1        // [CLKSEL - Clock Select]$
 490   1        //FLSCL = FLSCL_BYPASS__SYSCLK;
 491   1      
 492   1      }
 493          
 494          //================================================================================
 495          // TIMER01_0_enter_DefaultMode_from_RESET
 496          //================================================================================
 497          extern void
 498          TIMER01_0_enter_DefaultMode_from_RESET (void)
 499          {
 500   1        // $[Timer Initialization]
 501   1        //Save Timer Configuration
 502   1        uint8_t TCON_save = TCON;
 503   1        //Stop Timers
 504   1        TCON &= TCON_TR0__BMASK & TCON_TR1__BMASK;
 505   1      
 506   1        // [Timer Initialization]$
 507   1      
 508   1        // $[TH0 - Timer 0 High Byte]
 509   1        // [TH0 - Timer 0 High Byte]$
 510   1      
 511   1        // $[TL0 - Timer 0 Low Byte]
 512   1        // [TL0 - Timer 0 Low Byte]$
 513   1      
 514   1        // $[TH1 - Timer 1 High Byte]
 515   1        /*
 516   1         // TH1 (Timer 1 High Byte) = 0xBC
 517   1         */
 518   1        TH1 = (0x96 << TH1_TH1__SHIFT);
 519   1        TH0 = (0xBC << TH0_TH0__SHIFT);
 520   1        // [TH1 - Timer 1 High Byte]$
 521   1      
 522   1        // $[TL1 - Timer 1 Low Byte]
 523   1        /*
 524   1         // TL1 (Timer 1 Low Byte) = 0x34
 525   1         */
 526   1        // TL1 = (0x34 << TL1_TL1__SHIFT);
 527   1        TL0 = (0x34 << TL0_TL0__SHIFT);
 528   1        // [TL1 - Timer 1 Low Byte]$
 529   1      
 530   1        // $[Timer Restoration]
 531   1        //Restore Timer Configuration
 532   1        TCON = TCON_save;
 533   1      
 534   1        // [Timer Restoration]$
 535   1      
 536   1      }
 537          
 538          //extern void
 539          //TIMER00_0_enter_DefaultMode_from_RESET (void)
 540          //{
 541          //  // $[Timer Initialization]
 542          //  //Save Timer Configuration
 543          //  uint8_t TCON_save = TCON;
 544          //  //Stop Timers
 545          //  TCON &= TCON_TR1__BMASK & TCON_TR1__BMASK;
 546          //
 547          //  // [Timer Initialization]$
 548          //
 549          //  // $[TH0 - Timer 0 High Byte]
 550          //  // [TH0 - Timer 0 High Byte]$
 551          //
C51 COMPILER V9.60.0.0   INITDEVICE                                                        03/11/2024 16:02:04 PAGE 10  

 552          //  // $[TL0 - Timer 0 Low Byte]
 553          //  // [TL0 - Timer 0 Low Byte]$
 554          //
 555          //  // $[TH1 - Timer 1 High Byte]
 556          //  /*
 557          //   // TH1 (Timer 1 High Byte) = 0xBC
 558          //   */
 559          //  TH1 = (0xBC << TH1_TH1__SHIFT);
 560          //  // [TH1 - Timer 1 High Byte]$
 561          //
 562          //  // $[TL1 - Timer 1 Low Byte]
 563          //  /*
 564          //   // TL1 (Timer 1 Low Byte) = 0x34
 565          //   */
 566          //  TL1 = (0x34 << TL1_TL1__SHIFT);
 567          //  // [TL1 - Timer 1 Low Byte]$
 568          //
 569          //  // $[Timer Restoration]
 570          //  //Restore Timer Configuration
 571          //  TCON = TCON_save;
 572          //
 573          //  // [Timer Restoration]$
 574          //
 575          //}
 576          //================================================================================
 577          // TIMER16_3_enter_DefaultMode_from_RESET
 578          //================================================================================
 579          extern void
 580          TIMER16_3_enter_DefaultMode_from_RESET (void)
 581          {
 582   1        // $[Timer Initialization]
 583   1        // Save Timer Configuration
 584   1        uint8_t TMR3CN0_TR3_save = TMR3CN0 & TMR3CN0_TR3__BMASK;
 585   1        // Stop Timer
 586   1        TMR3CN0 &= ~(TMR3CN0_TR3__BMASK);
 587   1        // [Timer Initialization]$
 588   1      
 589   1        // $[TMR3CN0 - Timer 3 Control]
 590   1        // [TMR3CN0 - Timer 3 Control]$
 591   1      
 592   1        // $[TMR3H - Timer 3 High Byte]
 593   1        /*
 594   1         // TMR3H (Timer 3 High Byte) = 0x38
 595   1         */
 596   1        TMR3H = (0x38 << TMR3H_TMR3H__SHIFT);
 597   1        // [TMR3H - Timer 3 High Byte]$
 598   1      
 599   1        // $[TMR3L - Timer 3 Low Byte]
 600   1        /*
 601   1         // TMR3L (Timer 3 Low Byte) = 0x9E
 602   1         */
 603   1        TMR3L = (0x9E << TMR3L_TMR3L__SHIFT);
 604   1        // [TMR3L - Timer 3 Low Byte]$
 605   1      
 606   1        // $[TMR3RLH - Timer 3 Reload High Byte]
 607   1        /*
 608   1         // TMR3RLH (Timer 3 Reload High Byte) = 0x38
 609   1         */
 610   1        TMR3RLH = (0x38 << TMR3RLH_TMR3RLH__SHIFT);
 611   1        // [TMR3RLH - Timer 3 Reload High Byte]$
 612   1      
 613   1        // $[TMR3RLL - Timer 3 Reload Low Byte]
 614   1        /*
C51 COMPILER V9.60.0.0   INITDEVICE                                                        03/11/2024 16:02:04 PAGE 11  

 615   1         // TMR3RLL (Timer 3 Reload Low Byte) = 0x9E
 616   1         */
 617   1        TMR3RLL = (0x9E << TMR3RLL_TMR3RLL__SHIFT);
 618   1        // [TMR3RLL - Timer 3 Reload Low Byte]$
 619   1      
 620   1        // $[TMR3CN0]
 621   1        // [TMR3CN0]$
 622   1      
 623   1        // $[Timer Restoration]
 624   1        // Restore Timer Configuration
 625   1        TMR3CN0 |= TMR3CN0_TR3_save;
 626   1        // [Timer Restoration]$
 627   1      
 628   1      }
 629          
 630          //================================================================================
 631          // TIMER_SETUP_0_enter_DefaultMode_from_RESET
 632          //================================================================================
 633          extern void
 634          TIMER_SETUP_0_enter_DefaultMode_from_RESET (void)
 635          {
 636   1        // $[CKCON0 - Clock Control 0]
 637   1        // [CKCON0 - Clock Control 0]$
 638   1        CKCON0 = CKCON0_SCA__SYSCLK_DIV_12 | CKCON0_T0M__PRESCALE
 639   1            | CKCON0_T2MH__EXTERNAL_CLOCK | CKCON0_T2ML__EXTERNAL_CLOCK
 640   1            | CKCON0_T3MH__EXTERNAL_CLOCK | CKCON0_T3ML__EXTERNAL_CLOCK
 641   1            | CKCON0_T1M__SYSCLK;
 642   1        // $[TMOD - Timer 0/1 Mode]
 643   1        /*
 644   1         // T0M (Timer 0 Mode Select) = MODE0 (Mode 0, 13-bit Counter/Timer)
 645   1         // T1M (Timer 1 Mode Select) = MODE2 (Mode 2, 8-bit Counter/Timer with
 646   1         //     Auto-Reload)
 647   1         // CT0 (Counter/Timer 0 Select) = TIMER (Timer Mode. Timer 0 increments
 648   1         //     on the clock defined by T0M in the CKCON register.)
 649   1         // GATE0 (Timer 0 Gate Control) = DISABLED (Timer 0 enabled when TR0 = 1
 650   1         //     irrespective of INT0 logic level.)
 651   1         // CT1 (Counter/Timer 1 Select) = TIMER (Timer Mode. Timer 1 increments
 652   1         //     on the clock defined by T1M in the CKCON register.)
 653   1         // GATE1 (Timer 1 Gate Control) = DISABLED (Timer 1 enabled when TR1 = 1
 654   1         //     irrespective of INT1 logic level.)
 655   1         */
 656   1        TMOD = TMOD_T0M__MODE2 | TMOD_T1M__MODE2 | TMOD_CT0__TIMER
 657   1            | TMOD_GATE0__DISABLED | TMOD_CT1__TIMER | TMOD_GATE1__DISABLED;
 658   1        // [TMOD - Timer 0/1 Mode]$
 659   1      
 660   1        // $[TCON - Timer 0/1 Control]
 661   1        /*
 662   1         // TR1 (Timer 1 Run Control) = RUN (Start Timer 1 running.)
 663   1         */
 664   1        TCON |= TCON_TR1__RUN | TCON_TR0__RUN;
 665   1        // [TCON - Timer 0/1 Control]$
 666   1      
 667   1      }
 668          
 669          //================================================================================
 670          // SMBUS_0_enter_DefaultMode_from_RESET
 671          //================================================================================
 672          extern void
 673          SMBUS_0_enter_DefaultMode_from_RESET (void)
 674          {
 675   1        // $[SMB0ADR - SMBus 0 Slave Address]
 676   1        // [SMB0ADR - SMBus 0 Slave Address]$
 677   1      
C51 COMPILER V9.60.0.0   INITDEVICE                                                        03/11/2024 16:02:04 PAGE 12  

 678   1        // $[SMB0ADM - SMBus 0 Slave Address Mask]
 679   1        // [SMB0ADM - SMBus 0 Slave Address Mask]$
 680   1      
 681   1        // $[SMB0CF - SMBus 0 Configuration]
 682   1        /*
 683   1         // SMBCS (SMBus Clock Source Selection) = TIMER1 (Timer 1 Overflow.)
 684   1         // ENSMB (SMBus Enable) = ENABLED (Enable the SMBus module.)
 685   1         // SMBFTE (SMBus Free Timeout Detection Enable) = FREE_TO_ENABLED (Enable
 686   1         //     bus free timeouts. The bus the bus will be considered free if SCL and
 687   1         //     SDA remain high for more than 10 SMBus clock source periods.)
 688   1         // SMBTOE (SMBus SCL Timeout Detection Enable) = SCL_TO_ENABLED (Enable
 689   1         //     SCL low timeouts.)
 690   1         // EXTHOLD (SMBus Setup and Hold Time Extension Enable) = ENABLED (Enable
 691   1         //     SDA extended setup and hold times.)
 692   1         */
 693   1        SMB0CF &= ~SMB0CF_SMBCS__FMASK;
 694   1        SMB0CF |= SMB0CF_SMBCS__TIMER0 | SMB0CF_ENSMB__ENABLED
 695   1            | SMB0CF_SMBFTE__FREE_TO_ENABLED | SMB0CF_SMBTOE__SCL_TO_ENABLED
 696   1            | SMB0CF_EXTHOLD__ENABLED;
 697   1        // [SMB0CF - SMBus 0 Configuration]$
 698   1      
 699   1      }
 700          
 701          //================================================================================
 702          // INTERRUPT_0_enter_DefaultMode_from_RESET
 703          //================================================================================
 704          extern void
 705          INTERRUPT_0_enter_DefaultMode_from_RESET (void)
 706          {
 707   1        // $[EIE1 - Extended Interrupt Enable 1]
 708   1        /*
 709   1         // EADC0 (ADC0 Conversion Complete Interrupt Enable) = DISABLED (Disable
 710   1         //     ADC0 Conversion Complete interrupt.)
 711   1         // ECP0 (Comparator0 (CP0) Interrupt Enable) = DISABLED (Disable CP0
 712   1         //     interrupts.)
 713   1         // EPCA0 (Programmable Counter Array (PCA0) Interrupt Enable) = DISABLED
 714   1         //     (Disable all PCA0 interrupts.)
 715   1         // ERTC0A (RTC Alarm Interrupt Enable) = DISABLED (Disable RTC Alarm
 716   1         //     interrupts.)
 717   1         // ESMB0 (SMBus (SMB0) Interrupt Enable) = ENABLED (Enable interrupt
 718   1         //     requests generated by SMB0.)
 719   1         // ET3 (Timer 3 Interrupt Enable) = ENABLED (Enable interrupt requests
 720   1         //     generated by the TF3L or TF3H flags.)
 721   1         // EWADC0 (Window Comparison ADC0 Interrupt Enable) = DISABLED (Disable
 722   1         //     ADC0 Window Comparison interrupt.)
 723   1         */
 724   1        EIE1 = EIE1_EADC0__DISABLED | EIE1_ECP0__DISABLED | EIE1_EPCA0__DISABLED
 725   1            | EIE1_ERTC0A__DISABLED | EIE1_ESMB0__DISABLED | EIE1_ET3__DISABLED
 726   1            | EIE1_EWADC0__DISABLED;
 727   1        // [EIE1 - Extended Interrupt Enable 1]$
 728   1      
 729   1        // $[EIP1 - Extended Interrupt Priority 1]
 730   1        // [EIP1 - Extended Interrupt Priority 1]$
 731   1      
 732   1        // $[IE - Interrupt Enable]
 733   1        /*
 734   1         // EA (All Interrupts Enable) = ENABLED (Enable each interrupt according
 735   1         //     to its individual mask setting.)
 736   1         // EX0 (External Interrupt 0 Enable) = DISABLED (Disable external
 737   1         //     interrupt 0.)
 738   1         // EX1 (External Interrupt 1 Enable) = DISABLED (Disable external
 739   1         //     interrupt 1.)
 740   1         // ESPI0 (SPI0 Interrupt Enable) = DISABLED (Disable all SPI0
C51 COMPILER V9.60.0.0   INITDEVICE                                                        03/11/2024 16:02:04 PAGE 13  

 741   1         //     interrupts.)
 742   1         // ET0 (Timer 0 Interrupt Enable) = DISABLED (Disable all Timer 0
 743   1         //     interrupt.)
 744   1         // ET1 (Timer 1 Interrupt Enable) = DISABLED (Disable all Timer 1
 745   1         //     interrupt.)
 746   1         // ET2 (Timer 2 Interrupt Enable) = DISABLED (Disable Timer 2 interrupt.)
 747   1         // ES0 (UART0 Interrupt Enable) = DISABLED (Disable UART0 interrupt.)
 748   1         */
 749   1        IE =
 750   1        IE_EA__ENABLED | IE_EX0__DISABLED | IE_EX1__DISABLED | IE_ESPI0__DISABLED
 751   1            | IE_ET0__DISABLED | IE_ET1__DISABLED | IE_ET2__DISABLED
 752   1            | IE_ES0__DISABLED;
 753   1        // [IE - Interrupt Enable]$
 754   1      
 755   1        // $[IP - Interrupt Priority]
 756   1        // [IP - Interrupt Priority]$
 757   1      
 758   1        // $[EIE2 - Extended Interrupt Enable 2]
 759   1        // [EIE2 - Extended Interrupt Enable 2]$
 760   1      
 761   1        // $[EIP2 - Extended Interrupt Priority 2]
 762   1        // [EIP2 - Extended Interrupt Priority 2]$
 763   1      
 764   1      }
 765          


MODULE INFORMATION:   STATIC OVERLAYABLE
   CODE SIZE        =    247    ----
   CONSTANT SIZE    =   ----    ----
   XDATA SIZE       =   ----    ----
   PDATA SIZE       =   ----    ----
   DATA SIZE        =   ----       2
   IDATA SIZE       =   ----    ----
   BIT SIZE         =   ----    ----
   EDATA SIZE       =   ----    ----
   HDATA SIZE       =   ----    ----
   XDATA CONST SIZE =   ----    ----
   FAR CONST SIZE   =   ----    ----
END OF MODULE INFORMATION.


C51 COMPILATION COMPLETE.  0 WARNING(S),  0 ERROR(S)
